{
  "_format": "hh-sol-artifact-1",
  "contractName": "BuyMeACoffee",
  "sourceName": "contracts/BuyMeACoffee.sol",
  "abi": [
    {
      "inputs": [],
      "stateMutability": "nonpayable",
      "type": "constructor"
    },
    {
      "anonymous": false,
      "inputs": [
        {
          "indexed": true,
          "internalType": "address",
          "name": "from",
          "type": "address"
        },
        {
          "indexed": false,
          "internalType": "string",
          "name": "name",
          "type": "string"
        },
        {
          "indexed": false,
          "internalType": "string",
          "name": "message",
          "type": "string"
        },
        {
          "indexed": false,
          "internalType": "uint256",
          "name": "timestamp",
          "type": "uint256"
        }
      ],
      "name": "NewMemo",
      "type": "event"
    },
    {
      "inputs": [
        {
          "internalType": "string",
          "name": "_name",
          "type": "string"
        },
        {
          "internalType": "string",
          "name": "_message",
          "type": "string"
        }
      ],
      "name": "buyCoffee",
      "outputs": [],
      "stateMutability": "payable",
      "type": "function"
    },
    {
      "inputs": [],
      "name": "getMemos",
      "outputs": [
        {
          "components": [
            {
              "internalType": "address",
              "name": "from",
              "type": "address"
            },
            {
              "internalType": "string",
              "name": "name",
              "type": "string"
            },
            {
              "internalType": "string",
              "name": "message",
              "type": "string"
            },
            {
              "internalType": "uint256",
              "name": "timestamp",
              "type": "uint256"
            }
          ],
          "internalType": "struct BuyMeACoffee.Memo[]",
          "name": "",
          "type": "tuple[]"
        }
      ],
      "stateMutability": "view",
      "type": "function"
    },
    {
      "inputs": [],
      "name": "withdrawTips",
      "outputs": [],
      "stateMutability": "nonpayable",
      "type": "function"
    }
  ],
  "bytecode": "0x608060405234801561001057600080fd5b50336000806101000a81548173ffffffffffffffffffffffffffffffffffffffff021916908373ffffffffffffffffffffffffffffffffffffffff160217905550610bc8806100606000396000f3fe6080604052600436106100345760003560e01c8063204206e1146100395780633aaa74b214610055578063865c51721461006c575b600080fd5b610053600480360381019061004e91906106ed565b610097565b005b34801561006157600080fd5b5061006a61021f565b005b34801561007857600080fd5b5061008161030d565b60405161008e9190610973565b60405180910390f35b600034116100da576040517f08c379a00000000000000000000000000000000000000000000000000000000081526004016100d1906109f2565b60405180910390fd5b600160405180608001604052803373ffffffffffffffffffffffffffffffffffffffff16815260200184815260200183815260200142815250908060018154018082558091505060019003906000526020600020906004020160009091909190915060008201518160000160006101000a81548173ffffffffffffffffffffffffffffffffffffffff021916908373ffffffffffffffffffffffffffffffffffffffff160217905550602082015181600101908051906020019061019f9291906104f0565b5060408201518160020190805190602001906101bc9291906104f0565b506060820151816003015550503373ffffffffffffffffffffffffffffffffffffffff167fd42e89b4c5fbb2f2d060a3f55bf87f221232809d3b09e1833bd8f7e03227558083834260405161021393929190610a5a565b60405180910390a25050565b60008054906101000a900473ffffffffffffffffffffffffffffffffffffffff1673ffffffffffffffffffffffffffffffffffffffff163373ffffffffffffffffffffffffffffffffffffffff16146102ad576040517f08c379a00000000000000000000000000000000000000000000000000000000081526004016102a490610b11565b60405180910390fd5b60008054906101000a900473ffffffffffffffffffffffffffffffffffffffff1673ffffffffffffffffffffffffffffffffffffffff166108fc479081150290604051600060405180830381858888f1935050505061030b57600080fd5b565b60606001805480602002602001604051908101604052809291908181526020016000905b828210156104e757838290600052602060002090600402016040518060800160405290816000820160009054906101000a900473ffffffffffffffffffffffffffffffffffffffff1673ffffffffffffffffffffffffffffffffffffffff1673ffffffffffffffffffffffffffffffffffffffff1681526020016001820180546103ba90610b60565b80601f01602080910402602001604051908101604052809291908181526020018280546103e690610b60565b80156104335780601f1061040857610100808354040283529160200191610433565b820191906000526020600020905b81548152906001019060200180831161041657829003601f168201915b5050505050815260200160028201805461044c90610b60565b80601f016020809104026020016040519081016040528092919081815260200182805461047890610b60565b80156104c55780601f1061049a576101008083540402835291602001916104c5565b820191906000526020600020905b8154815290600101906020018083116104a857829003601f168201915b5050505050815260200160038201548152505081526020019060010190610331565b50505050905090565b8280546104fc90610b60565b90600052602060002090601f01602090048101928261051e5760008555610565565b82601f1061053757805160ff1916838001178555610565565b82800160010185558215610565579182015b82811115610564578251825591602001919060010190610549565b5b5090506105729190610576565b5090565b5b8082111561058f576000816000905550600101610577565b5090565b6000604051905090565b600080fd5b600080fd5b600080fd5b600080fd5b6000601f19601f8301169050919050565b7f4e487b7100000000000000000000000000000000000000000000000000000000600052604160045260246000fd5b6105fa826105b1565b810181811067ffffffffffffffff82111715610619576106186105c2565b5b80604052505050565b600061062c610593565b905061063882826105f1565b919050565b600067ffffffffffffffff821115610658576106576105c2565b5b610661826105b1565b9050602081019050919050565b82818337600083830152505050565b600061069061068b8461063d565b610622565b9050828152602081018484840111156106ac576106ab6105ac565b5b6106b784828561066e565b509392505050565b600082601f8301126106d4576106d36105a7565b5b81356106e484826020860161067d565b91505092915050565b600080604083850312156107045761070361059d565b5b600083013567ffffffffffffffff811115610722576107216105a2565b5b61072e858286016106bf565b925050602083013567ffffffffffffffff81111561074f5761074e6105a2565b5b61075b858286016106bf565b9150509250929050565b600081519050919050565b600082825260208201905092915050565b6000819050602082019050919050565b600073ffffffffffffffffffffffffffffffffffffffff82169050919050565b60006107bc82610791565b9050919050565b6107cc816107b1565b82525050565b600081519050919050565b600082825260208201905092915050565b60005b8381101561080c5780820151818401526020810190506107f1565b8381111561081b576000848401525b50505050565b600061082c826107d2565b61083681856107dd565b93506108468185602086016107ee565b61084f816105b1565b840191505092915050565b6000819050919050565b61086d8161085a565b82525050565b600060808301600083015161088b60008601826107c3565b50602083015184820360208601526108a38282610821565b915050604083015184820360408601526108bd8282610821565b91505060608301516108d26060860182610864565b508091505092915050565b60006108e98383610873565b905092915050565b6000602082019050919050565b600061090982610765565b6109138185610770565b93508360208202850161092585610781565b8060005b85811015610961578484038952815161094285826108dd565b945061094d836108f1565b925060208a01995050600181019050610929565b50829750879550505050505092915050565b6000602082019050818103600083015261098d81846108fe565b905092915050565b600082825260208201905092915050565b7f63616e27742062757920636f6666656520666f72206672656521000000000000600082015250565b60006109dc601a83610995565b91506109e7826109a6565b602082019050919050565b60006020820190508181036000830152610a0b816109cf565b9050919050565b6000610a1d826107d2565b610a278185610995565b9350610a378185602086016107ee565b610a40816105b1565b840191505092915050565b610a548161085a565b82525050565b60006060820190508181036000830152610a748186610a12565b90508181036020830152610a888185610a12565b9050610a976040830184610a4b565b949350505050565b7f4f6e6c7920746865206f776e65722063616e2063616c6c20746869732066756e60008201527f6374696f6e000000000000000000000000000000000000000000000000000000602082015250565b6000610afb602583610995565b9150610b0682610a9f565b604082019050919050565b60006020820190508181036000830152610b2a81610aee565b9050919050565b7f4e487b7100000000000000000000000000000000000000000000000000000000600052602260045260246000fd5b60006002820490506001821680610b7857607f821691505b60208210811415610b8c57610b8b610b31565b5b5091905056fea26469706673582212202ff0f908cf53bbd0b2532c0fbaecacfaf23a17c66ea3269b2aa53d1c66dcccfc64736f6c63430008090033",
  "linkReferences": {},
  "deployedLinkReferences": {}
}